:100000000C9496000C94BE000C94BE000C94BE00A0
:100010000C94BE000C94BE000C94BE000C94BE0068
:100020000C94BE000C94BE000C94BE000C94BE0058
:100030000C94BE000C94BE000C94BE000C94BE0048
:100040000C949F050C94BE000C940F060C94E905CB
:100050000C94BE000C94BE000C94BE000C94BE0028
:100060000C94BE000C94BE000C94BE000C94BE0018
:100070000C94BE000C94BE000C94BE000C94BE0008
:100080000C94BE000C94BE000C94BE000C94BE00F8
:100090000C94BE000C94BE000C94BE000C94BE00E8
:1000A0000C94BE000C94BE000C94BE000C94BE00D8
:1000B0000C94BE00000000002300260029002C0044
:1000C0000A0D0E09000302000004050800000000EC
:1000D00000000000000000000000000000000025FB
:1000E0000028002B002E0000000000240027002A1A
:1000F000002D0001020408102040800102040810B5
:100100002001020408102040804001020408040479
:1001100004040404040402020202020203030303AF
:1001200003030202030505050500410611241FBE55
:10013000CFEFD8E0DEBFCDBF12E0A0E0B1E0E0E558
:10014000F5E102C005900D92A632B107D9F723E080
:10015000A6E2B2E001C01D92A830B207E1F710E0BC
:10016000C6E9D0E004C02197FE010E94A00AC5396B
:10017000D107C9F70E94D2060C94A60A0C9400007D
:1001800090E0FC01ED50FF4F2491825F9E4FFC01F7
:100190008491882399F090E0880F991FFC01E95120
:1001A000FF4FA591B491FC01E552FF4F85919491C9
:1001B0008FB7F894EC91E22BEC938FBF0895FC017C
:1001C0006623B1F0238332839A0144275527822F77
:1001D000880F880F880F807E922F93709860892BEC
:1001E000818375E0369527957A95E1F72083089508
:1001F000C90133E0969587953A95E1F7808322957A
:10020000220F207E218313821282089582508D3026
:1002100008F03EC0E82FF0E0E05FFE4F0C94A00A2B
:10022000450149011D0123014801480127012D0114
:100230003101370148013B014101809180008F77F6
:10024000809380000895809180008F7DF9CF809108
:10025000B0008F778093B00008958091B0008F7DBB
:10026000F9CF809190008F778093900008958091CE
:1002700090008F7DF9CF8091A0008F778093A000B0
:1002800008958091A0008F7DF9CF84B58F7784BDCC
:10029000089584B58F7DFBCF1F93CF93DF93282FD5
:1002A00030E0F901E054FF4F8491F901ED50FF4F28
:1002B000D491F901E25FFE4FC491CC23A9F0162F2F
:1002C00081110E940601EC2FF0E0EE0FFF1FE552B6
:1002D000FF4FA591B4918FB7F894EC91111108C01C
:1002E000D095DE23DC938FBFDF91CF911F910895CE
:1002F000DE2BF8CF61E08091FF020C944C013FB7F8
:10030000F89480914C0290914D02A0914E02B091D0
:100310004F0226B5A89B05C02F3F19F00196A11DDD
:10032000B11D3FBFBA2FA92F982F8827BC01CD013F
:10033000620F711D811D911D43E0660F771F881F9D
:10034000991F4A95D1F708952FB7F8946091480204
:100350007091490280914A0290914B022FBF0895FB
:10036000AF92BF92CF92DF92EF92FF920F931F93C3
:10037000CF93DF936C017B018B01040F151FEB0101
:100380005E01AE18BF08C017D10759F06991D601B8
:10039000ED91FC910190F081E02DC6010995892B2A
:1003A00079F7C501DF91CF911F910F91FF90EF90E9
:1003B000DF90CF90BF90AF900895FC01538D448D96
:1003C000252F30E0842F90E0821B930B541710F000
:1003D000CF96089501970895FC01918D828D98170D
:1003E00061F0A28DAE0FBF2FB11D5D968C91928DE5
:1003F0009F5F9F73928F90E008958FEF9FEF089516
:10040000FC01918D828D981731F0828DE80FF11DDE
:10041000858D90E008958FEF9FEF0895FC01918DF9
:10042000228D892F90E0805C9F4F821B91098F73F2
:100430009927089580E692E00E940E0221E0892B20
:1004400009F420E0822F0895FC01A48DA80FB92F94
:10045000B11DA35ABF4F2C91848D90E001968F73EC
:100460009927848FA689B7892C93A089B1898C910B
:10047000837080648C93938D848D981306C002885A
:10048000F389E02D80818F7D80830895EF92FF9224
:100490000F931F93CF93DF93EC0181E0888F9B8DA7
:1004A0008C8D98131AC0E889F989808185FF15C061
:1004B0009FB7F894EE89FF896083E889F989808184
:1004C0008370806480839FBF81E090E0DF91CF9153
:1004D0001F910F91FF90EF900895F62E0B8D10E075
:1004E0000F5F1F4F0F731127E02E8C8D8E110CC0E4
:1004F0000FB607FCFACFE889F989808185FFF5CF2F
:10050000CE010E942402F1CFEB8DEC0FFD2FF11DE7
:10051000E35AFF4FF0829FB7F8940B8FEA89FB896B
:1005200080818062CFCFCF93DF93EC01888D8823C9
:10053000B9F0AA89BB89E889F9898C9185FD03C046
:10054000808186FD0DC00FB607FCF7CF8C9185FF2B
:10055000F2CF808185FFEDCFCE010E942402E9CF4A
:10056000DF91CF91089580E090E0892B29F00E94DF
:100570001A0281110E94000080E090E0892B49F06E
:1005800080E090E0892B29F00E94000081110C94FA
:10059000000008958EBD00000DB407FEFDCF8EB59E
:1005A000089542E050E06FE471E080E692E00C9440
:1005B000B001CF93DF93FC0101900020E9F7319760
:1005C000AF01481B590BBC0180E692E00E94B001CC
:1005D000EC010E94D1028C0F9D1FDF91CF910895F5
:1005E0000F931F93009100031091010320910203C8
:1005F0003091030340E059E06DE370E080E00417C0
:1006000015072607370740F4769567955795479560
:100610008F5F8630A1F787E0982F906A9695809536
:1006200081709CBD8DBD60E08091FF021F910F9194
:100630000C944C01CF93C82F0E94F00283E00E94DB
:10064000CA028C2F0E94CA0280E00E94CA02C82FF0
:100650000E947A018C2FCF9108951F93CF93DF933F
:10066000182FD62FC42F0E94F00285E00E94CA02E4
:10067000812F0E94CA028D2F0E94CA028C2F0E94D5
:10068000CA02DF91CF911F910C947A01CF92DF9231
:10069000EF92FF92CF93C82F482F60EE8FE00E9419
:1006A0002D030E94A4016B017C012AE0C20ED11C23
:1006B000E11CF11C0E94A4016C157D058E059F05AF
:1006C00080F48EE00E941A03807EC813F3CF81E08D
:1006D00091E0892790E0CF91FF90EF90DF90CF904D
:1006E000089580E0F5CFFF920F931F93CF93DF9390
:1006F000C82FF62E172F042F0E94F00282E00E94CE
:10070000CA028C2F0E94CA02CF2DD12F0C0F1D2F91
:10071000111DC017D10721F089910E94CA02F9CF9B
:10072000DF91CF911F910F91FF900C947A018F92DE
:100730009F92AF92BF92DF92EF92FF920F931F931F
:10074000CF93DF9300D000D0CDB7DEB78C01D62E8B
:1007500049015A0180E80E9446037C01892B31F54A
:1007600002301105A1F150F401151105B1F101306C
:10077000110569F0EE24E394F12C18C00430110542
:1007800051F138F105301105A9F718E101C014E065
:10079000A50194016D2DCE0101960E94DF0044E079
:1007A000BE016F5F7F4F812F0E947303C7010F90BF
:1007B0000F900F900F90DF91CF911F910F91FF90AD
:1007C000EF90DF90BF90AF909F908F90089518E0CA
:1007D000DFCF10E1DDCF14E1DBCF10E0D9CF8F9276
:1007E0009F92AF92BF92DF92EF92FF920F931F936F
:1007F000CF93DF9300D000D0CDB7DEB77C01D62EEB
:1008000049015A0180E80E9446038C01892BA1F41A
:10081000A50194016D2DCE0101960E94DF00E11427
:10082000F104D9F0EA94EF28D1F484E244E0BE0167
:100830006F5F7F4F0E947303C8010F900F900F905E
:100840000F90DF91CF911F910F91FF90EF90DF906C
:10085000BF90AF909F908F90089580E2E7CF01E026
:1008600010E0EACFCF93DF93D82FC62F0E94F0027B
:1008700082E00E94CA028D2F0E94CA028C2F0E9421
:10088000CA02DF91CF910C947A01FF920F931F93CC
:10089000CF93DF93C82FF62E172F042F0E94F0025C
:1008A00083E00E94CA028C2F0E94CA02CF2DD12F52
:1008B0000C0F1D2F111DC017D10729F080E00E94D9
:1008C000CA028993F8CFDF91CF911F910F91FF90CA
:1008D0000C947A01BF92CF92DF92EF92FF920F9326
:1008E0001F93CF93DF9300D000D01F92CDB7DEB718
:1008F0008C01000F111F000F111FF801EB5CFE4F60
:1009000045E0BE016F5F7F4F81810E9445048A816F
:10091000C98098E0C99E60011124282F30E055E07D
:10092000359527955A95E1F7C20ED31E0D2C000C74
:10093000EE08FF0883FF20C092E0CC0CDD1CEE1C0B
:10094000FF1C9A95D1F78370C80ED11CE11CF11CD5
:10095000FE2CED2CDC2CCC248B81C80ED11CE11C90
:10096000F11CFE2CED2CDC2CCC248C81C80ED11C6F
:10097000E11CF11C6894F7F88D818F70B82EE8E0C7
:1009800081E090E0EB1528F1F801EB5CFE4F8081EF
:100990000E941A0383FF02C06894F6F8C0925002C6
:1009A000D0925102E0925202F0925302B09254025D
:1009B0000B5C1E4F4B2D68E572E0F80182810E94AE
:1009C000450440E0F80163818CE20E942D0390E031
:1009D00080E00F900F900F900F900F90DF91CF91CC
:1009E0001F910F91FF90EF90DF90CF90BF900895EF
:1009F0003F924F925F926F927F928F929F92AF92AF
:100A0000BF92CF92DF92EF92FF920F931F93CF93FB
:100A1000DF93CDB7DEB7AA970FB6F894DEBF0FBE4F
:100A2000CDBF2B013C01FE013896E87F4082518208
:100A30006282738288E08483DA013896CA0108965C
:100A40009E2E8F2E2D9121938A179B07D9F786E032
:100A5000E2E0F1E0DE01959601900D928A95E1F7D2
:100A60007E0185E2E80EF11C5E01EBE2AE0EB11CE8
:100A7000F701C190D1907F018601000F111FF8018D
:100A8000EC0DFD1DE45DFE4F3080832D0E941A03A6
:100A900083FD50C0C301B201662797FD6395772798
:100AA000882799272FEF37E040E050E077FE04C019
:100AB0002FEF3FEF4FEF5FE12421352146215721F2
:100AC000CE0148960E94DF0088E08C8FE92DF82D3A
:100AD000DE015D9601900D928A95E1F70C0D1D1DCA
:100AE000F801E45DFE4F4DE0BE01685E7F4F8181FD
:100AF0000E94730348E068E0832D0E942D03832D3C
:100B00000E941A03AA960FB6F894DEBF0FBECDBF9F
:100B1000DF91CF911F910F91FF90EF90DF90CF90D9
:100B2000BF90AF909F908F907F906F905F904F900D
:100B30003F900895EA14FB0409F09ACFE3CF1F9287
:100B40000F920FB60F9211242F933F938F939F9381
:100B5000AF93BF938091480290914902A0914A02BD
:100B6000B0914B023091470226E0230F2D3768F1F8
:100B700029E8230F0396A11DB11D209347028093FE
:100B8000480290934902A0934A02B0934B0280918D
:100B90004C0290914D02A0914E02B0914F020196ED
:100BA000A11DB11D80934C0290934D02A0934E0263
:100BB000B0934F02BF91AF919F918F913F912F9131
:100BC0000F900FBE0F901F9018950296A11DB11D9A
:100BD000D4CF1F920F920FB60F9211242F933F93F1
:100BE0004F935F936F937F938F939F93AF93BF9335
:100BF000EF93FF9380E692E00E942402FF91EF9131
:100C0000BF91AF919F918F917F916F915F914F9124
:100C10003F912F910F900FBE0F901F9018951F922C
:100C20000F920FB60F9211242F938F939F93EF93F0
:100C3000FF93E0917002F09171028081E091760261
:100C4000F091770282FD1BC09081809179028F5FC5
:100C50008F7320917A02821741F0E0917902F0E0DF
:100C6000E05AFD4F958F80937902FF91EF919F910C
:100C70008F912F910F900FBE0F901F90189580812C
:100C8000F4CFCF93109263021092620288EE93E049
:100C9000A0E0B0E08093640290936502A0936602A6
:100CA000B093670281E491E09093610280936002C7
:100CB00085EC90E090936D0280936C0284EC90E060
:100CC00090936F0280936E0280EC90E0909371029B
:100CD0008093700281EC90E0909373028093720293
:100CE00082EC90E0909375028093740286EC90E021
:100CF00090937702809376021092790210927A0292
:100D000010927B0210927C028EEF92E0909305038A
:100D100080930403CFB7F8948091FD02811124C021
:100D2000E8E1F1E08491EDEFF0E09491E82FF0E05C
:100D3000EE0FFF1FE951FF4FA591B491EC91E9230C
:100D400021F461E08AE00E944C018AE00E94C00028
:100D50008CB580618CBD8CB580648CBD8DE00E94AB
:100D6000C0008BE00E94C0008091FD028F5F8093E5
:100D7000FD02CFBF8AE08093FF0280E896E9A8E9F0
:100D8000B0E08093000390930103A0930203B0931B
:100D900003038AE00E94C00061E08091FF02CF91CE
:100DA0000C944C01CF93DF93CDB7DEB7C154D1097A
:100DB0000FB6F894DEBF0FBECDBF7E0128E0E20E75
:100DC000F11C88EFE822789484B5836084BD85B5F2
:100DD000836085BD80916E00816080936E0012E01B
:100DE00010938100809181008160809381008091C7
:100DF00080008160809380008091B1008460809346
:100E0000B1008091B00081608093B000809191002A
:100E10008360809391008091900081608093900026
:100E20008091A10083608093A1008091A0008160E7
:100E30008093A00086E880937A001092C1008FE032
:100E40000E94C000E0917002F09171021083E09165
:100E50006C02F0916D021082E0916E02F0916F02CF
:100E600088E0808310927802E0917402F09175021C
:100E700086E08083E0917202F0917302808188693C
:100E80008083E0917202F091730280818F7D808374
:100E900061E08FE00E944C010E94F00280EC0E9411
:100EA000CA020E947A010E947F012B013C016AE084
:100EB000862E912CA12CB12C0E947F0164197509FA
:100EC00086099709683E734081059105A8F391E072
:100ED000891A9108A108B108E8EE4E0EE3E05E1E03
:100EE000611C711C81149104A104B10429F78E01C5
:100EF000085D1F4F8EE0F80111928A95E9F74EE0E8
:100F0000B80180E30E9473034EE0B80180E40E94C0
:100F100073034EE0B80180E50E94730360E080E651
:100F20000E94320460E080E70E94320463EA8BE2B0
:100F30000E94320444E067E680E60E942D0341E00F
:100F400067E680E70E942D038CE0E8E0F1E0DE0137
:100F5000D69601900D928A95E1F75E01F6E3AF0E09
:100F6000B11CD12CC12CF501819191915F0161E0FF
:100F7000F1E0CF16D10409F060E020E030E0A901F3
:100F80000E949703892BC9F42FEFC21AD20A86E078
:100F9000C816D10441F720E030E0A90161E090E0FB
:100FA00080E00E94EF03892B41F420E030E0A901AA
:100FB00061E081E090E00E94EF0380E80E94460338
:100FC000892B61F460E08AE20E94320460E989E2E0
:100FD0000E94320462E888E20E9432042FEF3FEF61
:100FE0004FEF5FE161E090E080E00E94EF0320E1DD
:100FF00031EF4AED58E161E090E080E00E94970314
:101000002EED3CEB4AE051E161E081E090E00E948E
:1010100097032FEF37E040E050E060E081E090E0A0
:101020000E94EF0326E232E040E050E060E082E020
:1010300090E00E94970380E00E94460310924402D1
:101040008FEF9FEF909301018093000182E591E083
:101050000E94D90246E0642E712C53E0A52EB12CDB
:10106000270197E0490E511C0E94F00280EA0E947D
:10107000CA0280E00E94CA02D82E0E947A0190E043
:1010800080E0D0FC5AC081E090E0D1FC56C0809155
:10109000000190910101069709F04CC04091500267
:1010A00050915102609152027091530277FF4BC0F0
:1010B000DB01CA01BF718031914FAA4DB84109F0DF
:1010C00049C080914602811145C08091580280310B
:1010D00009F059C0E0E5F2E0D701509601900D9279
:1010E0008A95E1F7F701858D80932902868D80939B
:1010F0002A02878D80932B02B0923B02A0923A0283
:1011000088E0F80111928A95E9F780E388A7483EC4
:1011100057406105710591F560EE77E080E090E061
:10112000A8010E94F80480E691E00E94D90281E0C3
:10113000809345020E94B30297CF0E946A04892BD4
:1011400009F4ACCFA4CF483EF7E05F076105710515
:1011500009F4B7CFE0910001F09101013196E83038
:10116000F10540F7EA54F74F0C94A00AFC08470930
:101170005C099D09D309F509200A3F0A61EF70E176
:101180008AED98E9CDCF80914502882319F380E15B
:10119000E0E5F2E0D70101900D928A95E1F7670151
:1011A00080913A0290913B02813191058CF4F601D5
:1011B00061859C012F5F3F4F30933B0220933A02A1
:1011C000875D9D4FFC01608380E692E00E944602AD
:1011D000FFEFCF1ADF0A4C145D0411F780913A0239
:1011E00090913B0241971CF081E0809346028AE790
:1011F00091E00E94D9029ECF80912802811107C000
:1012000081E08093280260E08FE00E944C01809191
:10121000500290915102A0915202B0915302B7FF37
:1012200029C1BF718E3D9C4BAA40B14109F022C13A
:1012300088E0E4E1F1E0DE01989601900D928A9554
:10124000E1F7A8016AEB7CED8EE091E90E94F804D9
:1012500081E991E00E94D902D12CC12CC6010E94E3
:101260008A0A882321F060E0C6010E94920A8FEF6B
:10127000C81AD80A91E1C916D10481F787EA91E02A
:101280000E94D902709201016092000153CF463250
:1012900052406105710509F04DCF80915A0284FDDD
:1012A00049CF85EB91E00E94D90281E090E09093D4
:1012B0000101809300013ECF8091440281111DC045
:1012C00088E0ECE1F1E0DE01989601900D928A95BC
:1012D000E1F7A80161EF73E38BED98E90E94F80450
:1012E000A8016FED77E080E090E00E94F80481E0D3
:1012F0008093440282EC91E07CCF80914602882367
:1013000009F418CF1092440281ED91E00E94D902B5
:1013100039E2C32E32E0D32EF60161916F0180E6EF
:1013200092E00E944602FAE3CF16F2E0DF06A1F750
:101330000E94D10282E090E0BACFD12CC12CC6012C
:101340000E948A0A811125C09FEFC91AD90AE1E1DA
:10135000CE16D104A1F78FEF91E00E94D90289E265
:10136000882E82E0982ED12CC12CF40131904F01AF
:10137000C6010E948A0A381621F0632DC6010E9418
:10138000920AFFEFCF1ADF0A21E1C216D10469F7F2
:1013900005C0C6010E948A0A8F3FB1F2B0920101D6
:1013A000A0920001C7CE29E2822E22E0922ED12CFB
:1013B000C12CF40131904F01C6010E948A0A3812F3
:1013C000A6C0FFEFCF1ADF0A21E1C216D10489F7C8
:1013D0000E94A401609340027093410280934202F4
:1013E0009093430284E090E062CF0E94A401209198
:1013F0004002309141024091420250914302621BEF
:10140000730B840B950B603273408105910508F4D2
:1014100091CE88E0E4E2F1E0DE01989601900D9231
:101420008A95E1F7A80161EB74E080E090E00E940A
:10143000F8048FED91E00E94D90285E090E037CF6B
:1014400060E08FE00E944C01809150029091510227
:10145000A0915202B091530286329240A105B1058B
:1014600009F068CE80915A0284FF64CE8EEE91E03E
:101470000E94D90210920101109200015BCE0E94DD
:10148000A40120913C0230913D0240913E025091D6
:101490003F02621B730B840B950B643F7140810507
:1014A000910528F4232B242B252B09F043CEEFECB8
:1014B000F0E08491E2E0F1E0C490EDE1F1E0D4905D
:1014C00070E060E0DD2099F081110E940601ED2DB1
:1014D000F0E0EE0FFF1FEC54FF4FA591B4918C91FB
:1014E000C82291E080E009F490E0692F782FF1E0C4
:1014F0006F278FE00E944C010E94A40160933C0280
:1015000070933D0280933E0290933F0213CE8FE092
:1015100092E0B6CEF999FECF92BD81BDF89A992797
:1015200080B50895262FF999FECF1FBA92BD81BDCF
:1015300020BD0FB6F894FA9AF99A0FBE0196089555
:10154000EE0FFF1F0590F491E02D0994F894FFCF62
:10155000FFFF000001000200000001000200030084
:1015600004000500534F424552414E4F020902000C
:10157000000000001100001F8009000030313640DB
:10158000414650515660616601707176020000005C
:10159000004602B001DD0193020E02EC0100020DD3
:1015A0000A0043414E20496E69636961646F2E00F1
:1015B0005072696D6569726F2071756164726F2018
:1015C000726563656269646F2E004D656E73616755
:1015D000656D2056494E2072656365626964612EAF
:1015E000004C696D70657A6120636F6E6669726D1B
:1015F0006164612E2E2E00454550524F4D204C699E
:101600006D70612E00434152524F204C4947414476
:101610004F005265717565737420666569746F2E2D
:101620000056494E20436F6D706C65746F2E0054E8
:101630006F67676C6520456E766961646F00434132
:1016400052524F204445534C494741444F2E004D80
:10165000656DC3B37269612076617A69612E005647
:10166000494E206EC3A36F2073C3A36F20696775B3
:061670006169732E000009
:00000001FF
